{
  "_format": "hh-sol-artifact-1",
  "contractName": "Greeters",
  "sourceName": "contracts/Greeters.sol",
  "abi": [
    {
      "inputs": [
        {
          "internalType": "uint256",
          "name": "_greeters",
          "type": "uint256"
        },
        {
          "internalType": "address",
          "name": "_verifier",
          "type": "address"
        }
      ],
      "stateMutability": "nonpayable",
      "type": "constructor"
    },
    {
      "anonymous": false,
      "inputs": [
        {
          "indexed": false,
          "internalType": "bytes32",
          "name": "greeting",
          "type": "bytes32"
        }
      ],
      "name": "NewGreeting",
      "type": "event"
    },
    {
      "anonymous": false,
      "inputs": [
        {
          "indexed": false,
          "internalType": "uint256",
          "name": "nullifierHash",
          "type": "uint256"
        }
      ],
      "name": "NullifierHashAdded",
      "type": "event"
    },
    {
      "inputs": [
        {
          "internalType": "bytes32",
          "name": "_greeting",
          "type": "bytes32"
        },
        {
          "internalType": "uint256",
          "name": "_nullifierHash",
          "type": "uint256"
        },
        {
          "internalType": "uint256[8]",
          "name": "_proof",
          "type": "uint256[8]"
        }
      ],
      "name": "greet",
      "outputs": [],
      "stateMutability": "nonpayable",
      "type": "function"
    },
    {
      "inputs": [],
      "name": "greeters",
      "outputs": [
        {
          "internalType": "uint256",
          "name": "",
          "type": "uint256"
        }
      ],
      "stateMutability": "view",
      "type": "function"
    },
    {
      "inputs": [],
      "name": "verifier",
      "outputs": [
        {
          "internalType": "contract IVerifier",
          "name": "",
          "type": "address"
        }
      ],
      "stateMutability": "view",
      "type": "function"
    }
  ],
  "bytecode": "0x608060405234801561001057600080fd5b50604051610b86380380610b86833981810160405281019061003291906100ab565b8160018190555080600260006101000a81548173ffffffffffffffffffffffffffffffffffffffff021916908373ffffffffffffffffffffffffffffffffffffffff1602179055505050610151565b60008151905061009081610123565b92915050565b6000815190506100a58161013a565b92915050565b600080604083850312156100be57600080fd5b60006100cc85828601610096565b92505060206100dd85828601610081565b9150509250929050565b60006100f2826100f9565b9050919050565b600073ffffffffffffffffffffffffffffffffffffffff82169050919050565b6000819050919050565b61012c816100e7565b811461013757600080fd5b50565b61014381610119565b811461014e57600080fd5b50565b610a26806101606000396000f3fe608060405234801561001057600080fd5b50600436106100415760003560e01c80632b7ac3f31461004657806387139a9414610064578063f8fc92a314610082575b600080fd5b61004e61009e565b60405161005b9190610818565b60405180910390f35b61006c6100c4565b6040516100799190610853565b60405180910390f35b61009c60048036038101906100979190610549565b6100ca565b005b600260009054906101000a900473ffffffffffffffffffffffffffffffffffffffff1681565b60015481565b6100fe836001548460015485600260009054906101000a900473ffffffffffffffffffffffffffffffffffffffff16610143565b6101078261049c565b7fdca4fe235351d51f8e3444599c9a1afc6d12397dcdc4fd5df11bb6cfe0eb5a778360405161013691906107fd565b60405180910390a1505050565b60008085815260200190815260200160002060009054906101000a900460ff16156101a3576040517f08c379a000000000000000000000000000000000000000000000000000000000815260040161019a90610833565b60405180910390fd5b60006101ae876104ca565b90508173ffffffffffffffffffffffffffffffffffffffff16635fe8c13b604051806040016040528086600060088110610211577f4e487b7100000000000000000000000000000000000000000000000000000000600052603260045260246000fd5b6020020135815260200186600160088110610255577f4e487b7100000000000000000000000000000000000000000000000000000000600052603260045260246000fd5b602002013581525060405180604001604052806040518060400160405280896002600881106102ad577f4e487b7100000000000000000000000000000000000000000000000000000000600052603260045260246000fd5b60200201358152602001896003600881106102f1577f4e487b7100000000000000000000000000000000000000000000000000000000600052603260045260246000fd5b60200201358152508152602001604051806040016040528089600460088110610343577f4e487b7100000000000000000000000000000000000000000000000000000000600052603260045260246000fd5b6020020135815260200189600560088110610387577f4e487b7100000000000000000000000000000000000000000000000000000000600052603260045260246000fd5b60200201358152508152506040518060400160405280886006600881106103d7577f4e487b7100000000000000000000000000000000000000000000000000000000600052603260045260246000fd5b602002013581526020018860076008811061041b577f4e487b7100000000000000000000000000000000000000000000000000000000600052603260045260246000fd5b602002013581525060405180608001604052808c81526020018b81526020018781526020018a8152506040518563ffffffff1660e01b815260040161046394939291906107b6565b60006040518083038186803b15801561047b57600080fd5b505afa15801561048f573d6000803e3d6000fd5b5050505050505050505050565b600160008083815260200190815260200160002060006101000a81548160ff02191690831515021790555050565b60006008826040516020016104df919061079b565b6040516020818303038152906040528051906020012060001c901c9050919050565b60008190508260206008028201111561051957600080fd5b92915050565b60008135905061052e816109c2565b92915050565b600081359050610543816109d9565b92915050565b6000806000610140848603121561055f57600080fd5b600061056d8682870161051f565b935050602061057e86828701610534565b925050604061058f86828701610501565b9150509250925092565b60006105a58383610620565b60408301905092915050565b60006105bd838361077d565b60208301905092915050565b6105d28161088c565b6105dc81846108d4565b92506105e78261086e565b8060005b838110156106185781516105ff8782610599565b965061060a836108ad565b9250506001810190506105eb565b505050505050565b61062981610897565b61063381846108df565b925061063e82610878565b8060005b8381101561066f57815161065687826105b1565b9650610661836108ba565b925050600181019050610642565b505050505050565b61068081610897565b61068a81846108ea565b925061069582610878565b8060005b838110156106c65781516106ad87826105b1565b96506106b8836108ba565b925050600181019050610699565b505050505050565b6106d7816108a2565b6106e181846108f5565b92506106ec82610882565b8060005b8381101561071d57815161070487826105b1565b965061070f836108c7565b9250506001810190506106f0565b505050505050565b61072e81610911565b82525050565b61074561074082610911565b610969565b82525050565b61075481610945565b82525050565b6000610767603683610900565b915061077282610973565b604082019050919050565b6107868161093b565b82525050565b6107958161093b565b82525050565b60006107a78284610734565b60208201915081905092915050565b6000610180820190506107cc6000830187610677565b6107d960408301866105c9565b6107e660c0830185610677565b6107f46101008301846106ce565b95945050505050565b60006020820190506108126000830184610725565b92915050565b600060208201905061082d600083018461074b565b92915050565b6000602082019050818103600083015261084c8161075a565b9050919050565b6000602082019050610868600083018461078c565b92915050565b6000819050919050565b6000819050919050565b6000819050919050565b600060029050919050565b600060029050919050565b600060049050919050565b6000602082019050919050565b6000602082019050919050565b6000602082019050919050565b600081905092915050565b600081905092915050565b600081905092915050565b600081905092915050565b600082825260208201905092915050565b6000819050919050565b600073ffffffffffffffffffffffffffffffffffffffff82169050919050565b6000819050919050565b600061095082610957565b9050919050565b60006109628261091b565b9050919050565b6000819050919050565b7f53656d6170686f7265436f72653a20796f752063616e6e6f742075736520746860008201527f652073616d65206e756c6c696669657220747769636500000000000000000000602082015250565b6109cb81610911565b81146109d657600080fd5b50565b6109e28161093b565b81146109ed57600080fd5b5056fea2646970667358221220065b3e279d541ccc4166d3512d892217106d980d8c2ea653dcefc87f1e15c47e64736f6c63430008040033",
  "linkReferences": {},
  "deployedLinkReferences": {}
}